:040000008031202803
:100008007E14803140017F08FB000B1F13284E012E
:1000180017180D1C13288131BD2180311B280B1F97
:100028001B284E019A18901C1B28803128207B0819
:100038004001FF007E10090080312228FC01FD01EB
:100048007E104001813193298131B42180317108BA
:100058004001A3007008A200A001A101A401A5010C
:100068004E01901040012308803AF900823079024D
:10007800031D402800302202031857284001A00120
:10008800A1010230F0000030F1002209F900230933
:10009800FA00F90A0319FA0A7908FF3EF200033058
:1000A8007A3DF300642801304001A0000030A1002F
:1000B8000230F0000030F1002308F3002208F200BB
:1000C8008031AC208031700845018D0040018E1FC1
:1000D8006F28A401A5010E1F75280330A400003065
:1000E800A5008E1E7B280230A4000030A5000E1E3D
:1000F80081280130A4000030A50020032104031D3D
:100108008B282408023EA4000030253DA500981342
:100118001813981218129C28181608009816080028
:1001280018170800981708001816080098160800ED
:100138002508003A0319A128AB28240884000630B2
:10014800040203180800813104357C3E820008004F
:10015800F601F11FB628F009F109F00A0319F10AAE
:10016800F601F60AF31FC128F209F309F20A031986
:10017800F30A0130F4007408F606F701F801700874
:1001880071040319F028F501F50AF11BD52801308F
:10019800F035F10D890BCC280130F4007408F5070F
:1001A800C9280130F735F80D890BD6287108730274
:1001B800031DE02870087202031CE7287008F20289
:1001C8007108F33B77140130F136F00C890BE828FD
:1001D8000130F502031DD52876080319F828F70918
:1001E800F809F70A0319F80A7808F1007708F00007
:1001F80008004001960197019801FF309100FF30F7
:1002080092000E30930005307E01CE00FF30C3000F
:10021800BD30B800C401B901CF01BA01C501D00190
:1002280000308B1B01304001A6008B1355307D0137
:100238008F00AA308F000F101C08E03913389C007B
:1002480010307E01A0007D014B08E0391138CB0049
:1002580055308F00AA308F000F144001261C362914
:100268008B1708008B130800410194019501960132
:10027800990197013F3098009A019B019C018030B9
:100288009D009E0142018D018E018F019001910117
:1002980092019301C430410193004E010D101714CF
:1002A8000800343045018E00043090008F01910120
:1002B8009A308D008C014E0190109A140030400144
:1002C800A6000030A7008131AE2181318131BA21E9
:1002D80008008031FD20813181319D2181318131BA
:1002E80038218131813155218131813188210800BE
:1002F8008031902880319228803194288031962846
:100308008031982880319A28083042019F00903027
:100318009D0024309E0067309B009C0108008131BD
:100328006D2181318B170B1701308131A621813165
:100338009C29603051018D008F019101023093009A
:10034800920108004001A600260841019E0093176B
:100358001314080040012708A9002608A80008006F
:1003680041010D08F1000C08F000080045018E1746
:0803780008004E010D10080001
:020000040001F9
:0A000E00EC3FFF3F9F3FFF3FFF3F25
:00000001FF
