:040000008031202803
:100008007E14803140017F08BA000B1F13284E016F
:1000180017180D1C13288D313B2580311B280B1F09
:100028001B284E019A18901C1B288E31E926400186
:100038003A08FF007E100900803122284001CD01D6
:10004800CE01CF01D001D1017E10400180312C2892
:100058008D318425803101308D3155258031410124
:10006800B201B3018D315D25803140013C08C400E7
:100078003B08C3008D31932580314001430841017D
:10008800AC00400144084101AD0040014508410170
:10009800AE0032033304031D5728400151085004B1
:1000A8004F0403196E28410132033304031D7D28D0
:1000B80040014F08BB005008BC005108BD0000308B
:1000C800BE000030BF000030C0008E31AD26803148
:1000D80003187D284101B201B3018B130B134001B2
:1000E8001812181398120030CF000030D0000030DA
:1000F800D10040014F08BB005008BC005108BD00AA
:100108000030BE000030BF000030C0008E31AD2688
:1001180080310318922840018C1F9928400151080A
:1001280050044F0403198C1BEC2841012C08400192
:10013800CF0041012D084001D00041012E084001A7
:10014800D1000030C3002030C4004130C5004F0842
:10015800C6005008C7005108C800853122258031E3
:1001680040014308CF004408D0004508D1000030C2
:10017800C3004030C4004130C5004F08C6005008D5
:10018800C7005108C80083317623803140014308F5
:10019800CF004408D0004508D1000030C30000302B
:1001A800C400C030C5004F08C6005008C700510839
:1001B800C800813167218031400143084101AF0007
:1001C800400144084101B000400145084101B10027
:1001D80040018C1F0E1A152901304101B200003070
:1001E800B3004001181698160030C3000030C40050
:1001F800C030C5004F08C6005008C7005108C800E5
:10020800813167218031400143084101AF0040013D
:1002180044084101B000400145084101B1008B1775
:100228000B1740010C1B2129181298160C1F1A29AC
:100238004101B201B3014001981241013203330474
:10024800031D362840018C1B36284F08BB00500878
:10025800BC005108BD0041012F084001BE0041010A
:1002680030084001BF00410131084001C0008E3113
:10027800AD268031031836288B130B134001181252
:100288001813981298170030CF000030D0000030B3
:10029800D1001730C9009030CA008431572480310A
:1002A80040018C1F542903304101AB008A30AA0059
:1002B8005530890B5D29AA0B5D29AB0B5D290032EE
:1002C80040019813362840014308C9004408CA0071
:1002D8004508CB0003104A0D4B0DCC004C084101DA
:1002E800A20040014608C9004708CA004808CB00D8
:1002F80003104A0D4B0DCC004C084101A100220807
:10030800031993292108220203189B292203FF3A83
:1003180021074001C90019304902031C9B294001EB
:100328004608C3004708C4004808C5000800410142
:10033800210803190800220821020318AC29210307
:10034800FF3A22074001C900193049020318080082
:1003580006304001C90049084101A0004001C51FFD
:10036800B7294101A0174001C81FBC294101201726
:100378004001C417FF30C305FF30C4050030C50570
:10038800C717FF30C605FF30C7050030C805410153
:10039800210822020318F62901304001C635C70D8D
:1003A800C80D890BD12901304101A102210822067B
:1003B8000319F1290130A002200807390319F1298E
:1003C800D02901304001C536C40CC30C890BE6297D
:1003D8000130C90049084101A20722082106031972
:1003E8001F2AE5292208210203181F2A013040018B
:1003F800C335C40DC50D890BFB2901304101A2028B
:100408002108220603191B2A0130A00220080739F7
:1004180003191B2AFA2901304001C836C70CC60C3B
:10042800890B102A0130C90049084101A107220897
:100438002106031D0F2AA01F322AFF304001C306E0
:10044800FF30C406FF30C5060130C307003003186B
:100458000130C407003003180130C5074101201FCF
:10046800462AFF304001C606FF30C706FF30C806DF
:100478000130C607003003180130C70700300318E1
:100488000130C8074101A00140014308C6074408DC
:10049800C73D4508C83DC81F642AFF30C606FF305F
:1004A800C706FF30C8060130C60700300318013000
:1004B800C707003003180130C8074101A001A00A8E
:1004C80040014608BB004708BC004808BD00410180
:1004D80022084001C9004908BE0041012008400126
:1004E800CA004A08BF008F319B2740013B08C30060
:1004F8003C08C4003D08C500080078084001A00079
:100508007908A1007A08A2000310210D220DA3008A
:100518002308A6007B08A0007C08A1007D08A20093
:100528000310210D220DA3002308A5002608031996
:10053800A92A250826020318B02A2603FF3A250708
:10054800A00019302002031CB02A7B08F8007C08A0
:10055800F9007D08FA000800250803190800260894
:1005680025020318BF2A2503FF3A2607A0001930E1
:100578002002031808000630A0002008A400FA1B77
:10058800A417FD1B2417F917FF30F805FF30F905EC
:100598000030FA05FC17FF30FB05FF30FC05003082
:1005A800FD05250826020318FB2A0130FB35FC0D42
:1005B800FD0D890BDA2A0130A50225082606031944
:1005C800F62A0130A402240807390319F62AD92A81
:1005D8000130FA36F90CF80C890BED2A0130A0002D
:1005E8002008A607260825060319202BEC2A26082A
:1005F80025020318202B0130F835F90DFA0D890B67
:10060800002B0130A6022508260603191C2B0130F1
:10061800A4022408073903191C2BFF2A0130FD36D0
:10062800FC0CFB0C890B132B0130A0002008A5073C
:1006380026082506031D122BA41F322BFF30F806AF
:10064800FF30F906FF30FA060130F80700300318CA
:100658000130F907003003180130FA07241F442B32
:10066800FF30FB06FF30FC06FF30FD060130FB07BC
:10067800003003180130FC07003003180130FD0773
:10068800A4017808FB077908FC3D7A08FD3DFD1FA9
:100698005F2BFF30FB06FF30FC06FF30FD06013004
:1006A800FB07003003180130FC0700300318013045
:1006B800FD07A401A40A7B08F0007C08F1007D086E
:1006C800F2002608A0002008F3002408A100210851
:1006D800F4008F3137277008F8007108F9007208A4
:1006E800FA00080040014308C9004408CA00450848
:1006F800CB0003104A0D4B0DCC004C084101A00063
:100708002008031D8F2B00304001C3000030C400B7
:100718000030C500080040014608C9004708CA0063
:100728004808CB0003104A0D4B0DCC004C08410182
:10073800A5002508031DA82B00304001C300003088
:10074800C4000030C5000800410125087B3E400177
:10075800C90049084101A00740014308C9004408ED
:10076800CA004508CB001030CB36CA0CC90C890B1F
:10077800B82B4908CC004C084101A50040014608A7
:10078800C9004708CA004808CB001030CB36CA0C4D
:10079800C90C890BCA2B4908CC004C084101A50695
:1007A80080304001C90049084101A5054001C4172E
:1007B800C717FF30C605FF30C7050030C805003031
:1007C8004101A1000030A2000030A3000730400121
:1007D800C90049084101A4004001431CFE2B4608FA
:1007E8004101A107400147084101A23D40014808D5
:1007F8004101A33D01304001C536C40CC30C890B2F
:10080800FF2B0130C635C70DC80D890B062C0130EA
:100818004101A402031DF02B09304001C900490819
:100828004101A4004001431C242C46084101A107B2
:10083800400147084101A23D400148084101A33D4C
:1008480001304001C536C40CC30C890B252C01307E
:100858004101A336A20CA10C890B2C2C0130A40257
:10086800031D162C21084001BB004101220840014C
:10087800BC00410123084001BD004101200840019E
:10088800C9004908BE00410125084001CA004A08BC
:10089800BF008F319B2740013B08C3003C08C400C0
:1008A8003D08C50008004B304101A0002008A40005
:1008B80040014A084101A100400149084101A00046
:1008C8004001C90A0319CA0A410120088400210805
:1008D80085000008A2002208A900290803190800B9
:1008E8002530290603197D2C29088D3147258431A7
:1008F8005C2C4101A50140014A084101A1004001C9
:1009080049084101A0004001C90A0319CA0A410166
:1009180020088400210885000008A900003A03196E
:10092800212D643A03199C2C0D3A03199C2C5C2C3C
:10093800240886008701403FA700413FA8000230F5
:10094800A0002008A407A81FB22C0330A00020088C
:10095800A504A709A809A70A0319A80AA901A90AA9
:10096800053029060319D72C2908A000A101A035B4
:10097800A10D2D30200784009030213D8500003FD7
:10098800A200013FA30023082802031DCD2C220842
:100998002702031CD72C0130A0002008A907053026
:1009A8002906031DB82C250803390319DF2C2D301F
:1009B8008D314725843141012908A0002008A6006F
:1009C800FF304101A0002008A607260A03195C2C65
:1009D8000A304001C3000030C40041012608A000CD
:1009E800A101A035A10D2D30200784009030213DB4
:1009F8008500003F4001BB00013FBC0041012808C1
:100A08004001BE00410127084001BD008E313D264E
:100A1800843140013C08C6003B08C5008731CE2719
:100A2800843140014308303E4101A2002208A90058
:100A380029088D3147258431E42C080040014608F7
:100A4800C9004708CA004808CB0003104A0D4B0DDF
:100A5800CC004C084101A4002408031D3B2D0030A4
:100A68004001C3000030C4000030C5000800400148
:100A78004308C9004408CA004508CB0003104A0DC2
:100A88004B0DCC004C084101A5002508031D542D31
:100A980000304001C3000030C4000030C500080029
:100AA80000304101A1000030A2000030A3008930CD
:100AB80025074001C90049084101A4024001460830
:100AC800C9004708CA004808CB001030CB36CA0C0A
:100AD800C90C890B6A2D4908CC004C084101A500B6
:100AE80040014308C9004408CA004508CB0010303B
:100AF800CB36CA0CC90C890B7C2D4908CC004C0894
:100B08004101A50680304001C90049084101A505F9
:100B18004001C717FF30C605FF30C7050030C805BC
:100B2800C417FF30C305FF30C4050030C5051830B1
:100B3800C90049084101A0000130A135A20DA30D4B
:100B4800890BA12D400145084802031DB12D440819
:100B58004702031DB12D43084602031CBB2D430861
:100B6800C6024408C73B4508C83B4101211401306F
:100B78004001C635C70DC80D890BBC2D0130410198
:100B8800A002031DA02D21084001BB00410122083D
:100B98004001BC00410123084001BD004101240877
:100BA8004001C9004908BE00410125084001CA00AA
:100BB8004A08BF008F319B2740013B08C3003C080F
:100BC800C4003D08C500080022304001A4002408E4
:100BD800A80040012108A5002008A400A00A0319C4
:100BE800A10A24088400250885000008A600260814
:100BF800AD002D080319080025302D060319092E0C
:100C08002D088731FB278531ED2D4001A9012108E9
:100C1800A5002008A400A00A0319A10A240884003A
:100C2800250885000008AD00003A03199E2E643A95
:100C38000319222E0D3A0319222EED2D28088600BD
:100C48008701403FAB00413FAC000230A4002408BC
:100C5800A807AC1F382E0330A4002408A904AB0948
:100C6800AC09AB0A0319AC0AAD01AD0A05302D0673
:100C780003195D2E2D08A400A501A435A50D2D305E
:100C8800240784009030253D8500003FA600013FE1
:100C9800A70027082C02031D532E26082B02031C2D
:100CA8005D2E0130A4002408AD0705302D06031D74
:100CB8003E2E290803390319652E2D308731FB276D
:100CC800853140012D08A4002408AA00FF30400106
:100CD800A4002408AA072A0A0319ED2D0A30F800EF
:100CE8000030F9002A08A400A501A435A50D2D306F
:100CF800240784009030253D8500003FF000013F27
:100D0800F1002C08F3002B08F2008E3109268531FA
:100D18007108FB007008FA008D31DD2585317808EF
:100D2800303E4001A6002608AD002D088731FB277C
:100D380085316A2E08007B084001A0007C08A100CC
:100D48007D08A2000310210D220DA3002308A8008E
:100D58002808031DB62E0030F8000030F9000030D6
:100D6800FA0008007808A0007908A1007A08A20013
:100D78000310210D220DA3002308A9002908031D33
:100D8800CC2E0030F8000030F9000030FA000800DE
:100D98000030A5000030A6000030A70089302907E0
:100DA800A0002008A8027B08A0007C08A1007D08FC
:100DB800A2001030A236A10CA00C890BDE2E200850
:100DC800A3002308A9007808A0007908A1007A08E0
:100DD800A2001030A236A10CA00C890BEE2E200820
:100DE800A3002308A9068030A0002008A905FC1745
:100DF800FF30FB05FF30FC050030FD05F917FF301B
:100E0800F805FF30F9050030FA051830A000200871
:100E1800A4000130A535A60DA70D890B0E2F7A0861
:100E28007D02031D1D2F79087C02031D1D2F7808E4
:100E38007B02031C262F7808FB027908FC3B7A0802
:100E4800FD3B25140130FB35FC0DFD0D890B272FCB
:100E58000130A402031D0D2F2508F0002608F1001B
:100E68002708F2002808A0002008F3002908A1009C
:100E78002108F4008F3137277008F8007108F9004D
:100E88007208FA00080040012A08AE002B08AF00DB
:100E98002C08B00003102F0D300DB1003108B70039
:100EA8003708031D602F0030AD000030AC00003063
:100EB800AB000030AA0008002A08AE002B08AF00DB
:100EC8002C08B0001730B036AF0CAE0C890B672F6A
:100ED8002E08B1003108B200AB17FF30AA05FF3069
:100EE800AB050030AC052A08B3002B08B4002C0869
:100EF800B500B6018E30B702B71F9E2F3708803A6B
:100F08008F3E0318902F0030AD000030AC00003049
:100F1800AB000030AA0008000130B636B50CB40C9E
:100F2800B30C890B912F0130AE002E08B7070319B7
:100F3800B72F902F18303702031CB42F0030AD00A4
:100F48000030AC000030AB000030AA0008000130CF
:100F5800B335B40DB50DB60D890BAC2F0130B70202
:100F68003708031DAB2F32080319C52FB309B4097D
:100F7800B509B609B30A0319B40A0319B50A03195E
:100F8800B60A3608AD003508AC003408AB003308A3
:100F9800AA0008004001430844040319F62FC801B9
:100FA800C80AC41BE12F0130C335C40D890BD82FE3
:100FB8000130C7004708C807D52F44084602031D5B
:100FC800E72F43084502031CED2F4308C5024408D8
:100FD800C63B0130C436C30C890BEE2F0130C80262
:100FE800031DE12F4608C4004508C3000800F100AE
:080FF80071088D314D25080040
:101A76004E010D10080045018E17080040013C0874
:101A8600D3003B08D20008004001BC003C088D3161
:101A96006F250800F0004E010F1E4E2D7008420102
:101AA6009A0008004001BB003B0841019E009317C5
:101AB6001314080041010D084001BC0041010C0847
:101AC6004001BB000800603051018D008F0191017B
:101AD60002309300920108004001BB004E010F1E28
:101AE600712D40013B0842019A000800083042016E
:101AF6009F0090309D0024309E0067309B009C0123
:101B060008008E3172268D318D3166258D318D31ED
:101B1600C0258D318D31A8258D318D31792508006F
:101B260040014308BB004408BC00BD018E30C6001E
:101B36004608BE00BF018F319B2740013B08C3000A
:101B46003C08C4003D08C5000800333045018E003E
:101B5600043090008F01910160308D008C014E01A0
:101B660090109A1400304001BB000030BC008D314B
:101B760041258D318D313E250800410194019501A5
:101B86009601990197013F3098009A019B019C01AB
:101B960080309D009E0142018D018E018F019001D2
:101BA600910192019301C430410193004E010D1041
:101BB60017140800780879040319042EFD01FD0A9C
:101BC600F91BEF2D0130F835F90D890BE62D0130A3
:101BD600FC007C08FD07E32D79087B02031DF52D2B
:101BE60078087A02031CFB2D7808FA027908FB3B79
:101BF6000130F936F80C890BFC2D0130FD02031D6E
:101C0600EF2D7B08F9007A08F8000800F501F601C7
:101C1600700871040319382EF701F70AF11B1D2EFF
:101C26000130F035F10D890B142E0130F4007408E3
:101C3600F707112E0130F535F60D890B1E2E7108AA
:101C46007302031D282E70087202031C2F2E7008C3
:101C5600F2027108F33B75140130F136F00C890B72
:101C6600302E0130F702031D1D2E7608F10075088F
:101C7600F00008004001C101C2013B083C04031901
:101C86006D2EC001C00ABC1B522E0130BB35BC0DE7
:101C9600890B492E0130BF003F08C007462E013090
:101CA600C135C20D890B532E3C083E02031D5D2E25
:101CB6003B083D02031C642E3B08BD023C08BE3BAC
:101CC60041140130BC36BB0C890B652E0130C002B5
:101CD600031D522E4208BC004108BB00080040010B
:101CE600960197019801FF309100FF3092000E3067
:101CF600930005307E01CE00FF30C3003D30B800B2
:101D0600C401B901CF01BA01C501D00100308B1B56
:101D160001304001BB008B1355307D018F00AA3086
:101D26008F000F101C08E03913389C0010307E011C
:101D3600A0007D014B08E0391138CB0055308F00EB
:101D4600AA308F000F1440013B1CAB2E8B170800E6
:101D56008B1308004001BD1FC42E3B09C1003C097E
:101D6600C2003D09C300C10A0319C20A0319C30A06
:101D760000304107BB000030423DBC008030433D8F
:101D8600BD00C01FDA2E3E09C1003F09C20040094E
:101D9600C300C10A0319C20A0319C30A0030410766
:101DA600BE000030423DBF008030433DC000803061
:101DB600BD068030C00640083D02031D08003F08EE
:101DC6003C02031D08003E083B0208004E0190102D
:101DD60003104001181F0314031CF42E40011817AA
:101DE600F62E400118130E1E08000030F800803051
:101DF600F900BF30FA004F08FB005008FC005108FC
:101E0600FD00823181228E3178084001CF007908A9
:101E1600D0007A08D1004F08FB005008FC0051089A
:101E2600FD000030F8002030F9004130FA0086311C
:101E36009F268E3178084001AA007908AB007A08FF
:101E4600AC00873147278E3140012B08B9002A089C
:101E5600B8000030A0009030A1003908A30038086F
:101E6600A2008531E8250800730803193F2F720880
:101E760071047004031D502F0030F0000030F10093
:101E86000030F20008000130F5007508F307013054
:101E9600F236F10CF00C890B4B2FFE30720503194C
:101EA600692F462F0130F5007508F3070130F0075A
:101EB600003003180130F107003003180130F20733
:101EC6000130F236F10CF00C890B642FFF307205ED
:101ED6000319762F552F0130F3020130F035F10D3D
:101EE600F20D890B712FF11B7C2F02307302031840
:101EF6006E2F7318842FFF30F0057F30F105FF3009
:101F0600F2050310F30C7308F500F601F701103023
:101F1600F535F60DF70D890B8B2F7508F00476084D
:101F2600F1047708F204740803190800F217080090
:101F360040013E080319A42F3D083C043B04031D41
:101F4600B52F0030BB000030BC000030BD000800DB
:101F56000130C0004008BE070130BD36BC0CBB0CCA
:101F6600890BB02FFE303D050319CE2FAB2F013064
:101F7600C0004008BE070130BB070030031801301F
:101F8600BC07003003180130BD070130BD36BC0C5C
:101F9600BB0C890BC92FFF303D050319DB2FBA2F68
:101FA6000130BE020130BB35BC0DBD0D890BD62FED
:101FB600BC1BE12F02303E020318D32F3E18E92F37
:101FC600FF30BB057F30BC05FF30BD050310BE0CDE
:101FD6003E08C000C101C2011030C035C10DC20D9E
:101FE600890BF02F4008BB044108BC044208BD041D
:101FF6003F0803190800BD1708001B345B34303452
:102006006D341B345B3432344A341B345B34313424
:102016003B34313448341B345B343F34323435344A
:102026006C342534693400341B345B3430346D34FD
:102036001B345B3432344A341B345B3431343B3426
:10204600313448341B345B343F34323435346C34E9
:1020560030340034013400340A340034643400343B
:08206600E83403341034273480
:020000040001F9
:0A000E00EC3FFF3F9F3FFF3FFF3F25
:00000001FF
